:020000040800F2
:1000000020D8012009200008CD030008CF030008F4
:10001000D3030008D7030008DB030008000000003A
:10002000000000000000000000000000DF030008E6
:10003000E103000800000000E3030008E5030008F6
:100040002320000823200008232000082320000884
:100050002320000823200008232000082320000874
:100060002320000823200008232000082320000864
:100070002320000823200008232000082320000854
:100080002320000823200008232000082320000844
:100090002320000823200008232000082320000834
:1000A0002320000823200008232000082320000824
:1000B0002320000823200008E15500082320000821
:1000C0002320000823200008232000082320000804
:1000D000232000081D1F00082320000823200008FB
:1000E00023200008232000082320000823200008E4
:1000F00023200008232000082320000823200008D4
:1001000023200008232000082320000823200008C3
:1001100023200008232000082320000823200008B3
:1001200023200008F90B00082320000823200008E2
:100130002320000823200008232000082320000893
:100140002320000823200008232000082320000883
:100150002320000823200008811F00082320000816
:100160002320000823200008232000082320000863
:100170002320000823200008A70D0008000000002D
:100180002320000823200008232000082320000843
:100190002320000823200008232000082320000833
:1001A00023200008232000082320000800F002F884
:1001B00000F061F80AA090E8000C82448344AAF1A0
:1001C0000107DA4501D100F056F8AFF2090EBAE89E
:1001D0000F0013F0010F18BFFB1A43F0010318477B
:1001E00084A20000A4A200000A444FF0000C10F802
:1001F000013B13F0070408BF10F8014B1D1108BFA5
:1002000010F8015B641E05D010F8016B641E01F844
:10021000016BF9D113F0080F1EBF10F8014BAD1C94
:100220000C1B09D16D1E58BF01F801CBFAD505E0B2
:1002300014F8016B01F8016B6D1EF9D59142D6D30C
:10024000704700000023002400250026103A28BF34
:1002500078C1FBD8520728BF30C148BF0B60704738
:10026000642906F06D80002070471FB506F09DFAE6
:100270001FBD10B510BD06F0E7F91146FFF7F5FFF9
:1002800000F059F806F005FA03B4FFF7F2FF03BCDB
:1002900001F02EFD2DE9F04387B006460F4690464B
:1002A00007FB08F044000020069045A00068059078
:1002B000022105A801F07EFEE0B28DF81000200AB0
:1002C0008DF81100200C8DF81200200E8DF813000F
:1002D000042104A801F06EFEB14600251BE0681C55
:1002E00019F80000029019F805000190012102A8F8
:1002F00001F060FE012101A801F05CFE9DF81800EC
:100300009DF80810484006909DF818009DF80410CC
:1003100048400690AD1CA542E1D3012106A801F09A
:1003200049FE28A000680390022103A801F042FEC4
:1003300007B0BDE8F08308B5002400BF4FF4A0600B
:1003400001F082FEA82001F051FC4FF4E13001F0F1
:1003500001FD04F045FCA82005F0BEFA00F044FBC6
:1003600001F06FFB4FF6FF70F0231A46002100905A
:10037000084600F061FD21E054B900F0FAFC0A20C3
:1003800001F096FC00F0FEFC322001F091FC01240B
:10039000A4B1F02211460C48FFF77CFF0A48F02375
:1003A0001A4600210090084601F085FA642001F009
:1003B0007FFC43F2BC4001F07BFC0024DCE7000042
:1003C000FEFE0000FFFF000088010020704700BF14
:1003D000FEE700BFFEE700BFFEE700BFFEE7704795
:1003E00070477047704700003F48006840F4700055
:1003F0003D4908603D48006840F001003B49086005
:1004000000203A49083108603848006838490840F7
:10041000364908603748091D0860081F006820F445
:100420008020091F0860002030490C3108604FF01F
:1004300000602D4980390860704770B500200022A7
:10044000022300240221294D08352D6805F00C00F7
:1004500020B1042806D0082834D107E0264D274EC5
:10046000356033E0264D254E35602FE01F4D2D1DA4
:100470002D68C5F380541D4D2D1D2D6805F03F01DD
:1004800054B11F4DB5FBF1F5184E361D3668C6F355
:10049000881605FB06F209E0174DB5FBF1F5134E82
:1004A000361D3668C6F3881605FB06F20F4D2D1D66
:1004B0002D68C5F301456D1C6B00B2FBF3F50F4EC3
:1004C000356003E00C4D0D4E356000BF00BF074D99
:1004D00008352D68C5F303150A4E705D074D2D686C
:1004E000C540064E356070BD88ED00E00038024022
:1004F000FFFFF6FE103000240024F400000000206E
:1005000000127A00040000201CB50121022002F034
:1005100008FB0121084602F004FB4FF480700090B4
:1005200002208DF8040000208DF8060002208DF8CE
:10053000050069469F4802F051F84FF0C061002065
:1005400002F0D3F91820009001208DF804008DF8F6
:10055000060003208DF8050001208DF8070069468C
:10056000954802F03BF81821934802F0B3F800BF19
:100570009148006820F0C0008F4908600846006874
:1005800040F04000086000BF1CBD10B508218A483B
:1005900002F0A0F81021884802F09CF80A2001F02F
:1005A0003FFB0821844802F097F80A2001F038FB4D
:1005B0001021814802F090F80A2001F031FB10BDB3
:1005C00010B510217C4802F087F808217A4802F023
:1005D00083F80A2001F024FB1021774802F07AF812
:1005E0000A2001F01DFB0821734802F073F80A206D
:1005F00001F016FB10BD10B508216F4802F06AF833
:1006000010216D4802F066F80A2001F009FB102164
:10061000694802F061F80A2001F002FB08216648EF
:1006200002F05AF80A2001F0FBFA10BD70B504463A
:1006300000261DE004F0800020B108215E4802F091
:1006400049F803E008215C4802F046F86006040E11
:100650001021594802F03EF80A2001F0E1FA102179
:10066000554802F039F80A2001F0DAFA701CC6B2D7
:10067000082EDFDB00BF5048006820F0C0004E4964
:10068000086008460068086000BF0A2001F0C8FA48
:100690001021494802F01EF80A2001F0C1FA082191
:1006A000454801F0FDFF08B1012500E000251021BB
:1006B000414802F011F800BF3F48006820F0C00038
:1006C0003D4908600846006840F04000086000BFEF
:1006D000284670BD70B5002500BF3748006820F07F
:1006E000C0003549086008460068086000BF08245B
:1006F00018E00A2001F094FA10212F4801F0EAFFD7
:100700006806050E08212C4801F0CAFF08B1681CD4
:10071000C5B20A2001F084FA1021274801F0DCFF5D
:10072000601EC4B2002CE4DC00BF2348006820F047
:10073000C000214908600846006840F04000086099
:1007400000BFFFF758FF284670BD70B505460C4640
:100750000026FFF71AFF4220FFF768FF00B10126CD
:100760002846FFF763FF00B101262046FFF75EFF32
:1007700000B10126FFF724FF304670BD70B5044676
:100780000025FFF702FF4220FFF750FF2046FFF74A
:100790004DFFFFF715FF642001F042FAFFF7F5FE69
:1007A0004320FFF743FFFFF795FF0546FFF708FFDC
:1007B000284670BD00000240000402401CB5012123
:1007C000084602F0AEF948F21000009001208DF8C2
:1007D000040000208DF8060003208DF8050001209C
:1007E0008DF807006946D84801F0F8FE1CBD70B5C9
:1007F0000446402534B1012C06D0032C06D0042C2D
:1008000008D105E0302505E0382503E0502501E05A
:10081000602500BF00BF29465620FFF796FF70BD38
:1008200070B50446002534B1012C06D0032C06D047
:10083000042C08D105E0B02505E0982503E0182533
:1008400001E0302500BF00BF29465520FFF77DFF9E
:1008500070BD2DE9F0410446802522265E2734B183
:10086000012C08D0032C0AD0042C10D10BE0402519
:1008700011262F270BE066251B264B2707E099251D
:100880002826712703E0C02533268D2700BF00BF2F
:1008900029464F20FFF759FF29465020FFF755FF03
:1008A00000215120FFF751FF31465220FFF74DFF45
:1008B00039465320FFF749FF29465420FFF745FFEB
:1008C0009E215820FFF741FFBDE8F0812DE9F0415E
:1008D0000446E72500260027012C06D0022C08D06C
:1008E000032C0AD0042C10D10BE0E5255A265C27F6
:1008F0000BE0E5255826602707E0E52584264C27F0
:1009000003E0E5259626402700BF00BF29461320B7
:10091000FFF71BFF31460120FFF717FF3946022082
:10092000FFF713FFBDE8F0812DE9F04704460D46BF
:100930009046994604EB0800B0F5A07F03DDC4F5AE
:10094000A0701FFA80F805EB0900F02803DDC5F15F
:10095000F0001FFA80F904F1B00084B205F10C0038
:1009600085B204EB480086B205EB49001FFA80FA15
:10097000B6F5447F02DDA6F5447086B23220FFF75B
:10098000FDFE074607F0C00706F00701204661F3A9
:10099000DF00074339463220FFF7D7FEC4F3C70113
:1009A0001720FFF7D2FEC6F3C7011820FFF7CDFED0
:1009B0000320FFF7E3FE074607F0F0070AF0030104
:1009C000284661F39F00074339460320FFF7BDFE29
:1009D000C5F387011920FFF7B8FECAF387011A2073
:1009E000FFF7B3FEBDE8F08770B500250024FFF7E0
:1009F000E5FE1021544801F06FFE0A2001F058F97D
:100A00004FF40041504801F067FE0A2001F050F910
:100A10004FF400414C4801F05DFEFFF775FD802169
:100A20001220FFF792FE322001F042F91C20FFF75E
:100A3000A5FE04464FF6FF7000EA04241D20FFF7D0
:100A40009DFE044347F6A270844205D021463FA094
:100A500005F036FC012070BD0A20FFF78FFE04462A
:100A60004FF6FF7000EA04240B20FFF787FE0443D3
:100A700047F27360844205D0214637A005F020FC80
:100A80000220E8E700250AE0364A02EB45025178E9
:100A9000344A12F81500FFF758FE681C85B2A72DDE
:100AA000F2D3F0231A4600210846FFF73DFF00204D
:100AB000FFF70CFF0220FFF7CCFE0120FFF7B0FE8E
:100AC0000220FFF794FE00F0AFF84FF48063DA00E5
:100AD0004FF4E141244800F049F80020BBE72DE93C
:100AE000F04104460425C0268027072C1DD2DFE8EC
:100AF00004F01C04080C10141800242580268027FC
:100B000013E01425802680270FE01425C0268027B7
:100B10000BE014254026402707E014258026C02737
:100B200003E01425A026402700BF00BF29463A2035
:100B3000FFF70BFE31466820FFF707FE39466720B6
:100B4000FFF703FEBDE8F081000002400D0A4D49A9
:100B5000443A25640D0A00004849443A25640D0AC8
:100B60000D0A0000BE67000888010020F0B591B0B2
:100B700004460D4616461F460121880501F0D1FFA7
:100B8000A04801F0D1FA00BF9E4801F0F6FB002812
:100B9000FAD14FF0007002909B480390049400201B
:100BA00005900695079008974FF4805009900A9693
:100BB00000110B9040020C9004200D9003200E9029
:100BC00000200F90109002A98E4801F04FFB0122E7
:100BD00010218C4801F011FC39208DF80400002010
:100BE0008DF805008DF8060001208DF8070001A89A
:100BF00001F02FFA11B0F0BD10B58449814801F021
:100C0000CCFB01280FD100217E4801F069FB7F4910
:100C10007C4801F0DEFB01207D4908707D480068BA
:100C2000401C7C49086010BD0EB501218F2001F0E9
:100C300078FF0121084601F09DFF4FF4807001907C
:100C400002208DF8080000208DF80A0003208DF89E
:100C5000090001208DF80B0001A96F4801F0BEFCCE
:100C60004020019001A96D4801F0B8FC802001905E
:100C700001A96B4801F0B2FC4FF43C60019001A95E
:100C8000684801F0ABFC0820019001A9664801F01A
:100C9000A5FC4FF44070019001A9644801F09EFC4E
:100CA0000D2208215C4801F026FD0D2206215B483B
:100CB00001F021FD0D220721594801F01CFD0D22F4
:100CC0000621584801F017FD0D220721554801F073
:100CD00012FD0D220821534801F00DFD0D220921BE
:100CE000504801F008FD0D220B214E4801F003FD94
:100CF0000D2203214C4801F0FEFC0D22082148483A
:100D000001F0F9FC0D220921454801F0F4FC03F043
:100D1000D7F8022046490880002048818881088150
:100D2000888048808020C880084603F0D5F80121DB
:100D3000084603F051F90121102003F04DF9082075
:100D400003F07FF90121082003F046F9012003F0A8
:100D500022F94E208DF8000003208DF801000220BA
:100D60008DF8020001208DF80300684601F071F94A
:100D70000EBD10B50121234801F0B2FA012003F0A5
:100D800019F910BD10B5002003F014F900BF1E487A
:100D90002838006800F001000028F8D10021194827
:100DA00001F09EFA10BD10B5102003F03EF90128A5
:100DB00007D1102003F045F91E480078401C1D495A
:100DC0000870012003F031F9012801D103F039F94D
:100DD000082003F02AF9012802D1082003F031F994
:100DE00010BD2DE9F04104460D4616461F46FFF79B
:100DF000C9FF0121034801F073FA012003F0DAF87A
:100E0000BDE8F08128640240280005500008001069
:100E10002400002018000020001C024000000240B6
:100E20000004024000080240000C02400010024092
:100E300088C30120140000202DE9F04706460F4624
:100E400014461D46DDF820A0681E83B2601E82B2E3
:100E50003946304600F0D8FDB8460EE0B14606E00F
:100E6000504600F0B8FD09F101001FFA80F9A145D4
:100E7000F6DB08F101001FFA80F8A845EEDBBDE8BB
:100E8000F08770B504460D4616462B462246294685
:100E9000204600F0B9FD304600F09DFD70BD2DE903
:100EA000FF4F85B081468A4600200390834607980D
:100EB000A0EB09050898A0EB0A06CDF80890CDF83C
:100EC00004A0002D01DD012705E00DB9002702E097
:100ED0004FF0FF376D42002E02DD4FF0010806E0B3
:100EE00016B94FF0000802E04FF0FF387642B542E5
:100EF00001DD2C4600E03446002004901EE0019AFB
:100F000091B2029A90B2129AFFF7BBFF039828445D
:100F10000390B3440398A04205DD0398001B03909F
:100F2000029838440290A34504DDABEB040B019812
:100F3000404401900498401C80B20490611C0498C5
:100F40008842DCDB09B0BDE8F08F2DE9F8430546A7
:100F50000E4617469846089C33463A463146284680
:100F60000094FFF79CFF43462A46314628460094EA
:100F7000FFF795FF43463A46414628460094FFF75F
:100F80008EFF43463A46314638460094FFF787FFC6
:100F9000BDE8F8832DE9F04706460F46904699468E
:100FA0000025444641E07A1B91B2321B90B24A467A
:100FB000FFF767FF7A1B91B2321990B24A46FFF7EA
:100FC00060FF3A1991B2721B90B24A46FFF759FF7F
:100FD0003A1B91B2721B90B24A46FFF752FF7A1940
:100FE00091B2321990B24A46FFF74BFF3A1B91B2C9
:100FF000721990B24A46FFF744FF3A1991B272193A
:1010000090B24A46FFF73DFF7A1991B2321B90B277
:101010004A46FFF736FF6D1C05FB05F004FB040193
:1010200008FB08F0814200DD641EA542BBDDBDE87F
:10103000F0872DE9FF5F0646894692469B460F9C46
:101040000020039000962046E21704EB5272D21063
:101050002146E31704EB5373DB10A4EBC3030BB17E
:10106000012300E000231A44624392B2019205205A
:101070000290002571E005EB8510FA4911F8100087
:101080009AF80010884265D105EB8510F54901EB0F
:10109000400040789AF8011088425BD109EB0400C7
:1010A000401E83B23019401E82B24946304600F0DD
:1010B000ABFC00274BE04FF0000842E01098F8B975
:1010C00005EB8510E74901EB4000801CC05D012164
:1010D00001FA08F1084018B1584600F07CFC02E023
:1010E0000E9800F078FC0398401CC0B2039003985F
:1010F00090FBF4F104FB1100F8B90020039023E009
:1011000005EB8510D74901EB4000801CC05D012133
:1011100001FA08F1084020B15A4649463046FFF727
:10112000B0FE701C86B20098301AA04205D1009E15
:1011300009F101001FFA80F906E008F1010000F052
:10114000FF08B8F1080FB9DB00BF781CC7B20198DF
:101150008742B0DB00BF681C85B2029885428ADBFB
:10116000BDE8FF9F2DE9FF5F0646894692469B46F4
:101170000F9C0020039000962046E21704EB527269
:10118000D2102146E31704EB5373DB10A4EBC30327
:101190000BB1012300E000231A44624392B2019292
:1011A00005200290002579E005EB850000EB451055
:1011B000AD4911F810009AF8001088426BD105EB88
:1011C000850000EB4510A84901EB400040789AF8F3
:1011D000011088425FD109EB0400401E83B2301930
:1011E000401E82B24946304600F00EFC00274FE018
:1011F0004FF0000846E0109808BB05EB850000EBB7
:101200004510994901EB4000801CC05D012101FAA5
:1012100008F1084018B1584600F0DDFB02E00E98D6
:1012200000F0D9FB0398401CC0B20390039890FBD8
:10123000F4F104FB110008BB0020039025E005EB4E
:10124000850000EB4510884901EB4000801CC05D23
:10125000012101FA08F1084020B15A4649463046BA
:10126000FFF70FFE701C86B20098301AA04205D11D
:10127000009E09F101001FFA80F906E008F1010063
:1012800000F0FF08B8F1080FB5DB00BF781CC7B24B
:1012900001988742ACDB00BF681C85B2029885428A
:1012A00082DBBDE8FF9F2DE9FF5F06468946924637
:1012B0009B460F9C0020039000962046E21704EB0B
:1012C0005272D2102146E31704EB5373DB10A4EBE8
:1012D000C3030BB1012300E000231A44624392B21E
:1012E000019205200290002571E005EB05105F4991
:1012F00011F810009AF80010884265D105EB05102E
:101300005A4901EB400040789AF8011088425BD1BD
:1013100009EB0400401E83B23019401E82B24946D8
:10132000304600F071FB00274BE04FF0000842E030
:101330001098F8B905EB05104C4901EB4000801CF2
:10134000C05D012101FA08F1084018B1584600F0CB
:1013500042FB02E00E9800F03EFB0398401CC0B236
:101360000390039890FBF4F104FB1100F8B90020FE
:10137000039023E005EB05103C4901EB4000801C85
:10138000C05D012101FA08F1084020B15A464946E2
:101390003046FFF776FD701C86B20098301AA042E6
:1013A00005D1009E09F101001FFA80F906E008F15D
:1013B000010000F0FF08B8F1080FB9DB00BF781C8E
:1013C000C7B201988742B0DB00BF681C85B20298A3
:1013D00085428ADBBDE8FF9F2DE9FF5F064689460F
:1013E00092469B460F9C0020039000962046E217F1
:1013F00004EB5272D2102146E31704EB5373DB1057
:10140000A4EBC3030BB1012300E000231A446243A1
:1014100092B2019205200290002581E005EB850043
:1014200000EBC500124911F810009AF8001088422C
:1014300073D105EB850000EBC5000D4901EB4000C1
:1014400040789AF80110884267D109EB0400401EE9
:1014500083B23019401E82B24946304600F0D4FAB9
:10146000002757E09E9F00082C9E0008829D0008E0
:10147000009D00084FF0000846E0109808BB05EBFF
:10148000850000EBC500FE4901EB4000801CC05DFB
:10149000012101FA08F1084018B1584600F09BFA02
:1014A00002E00E9800F097FA0398401CC0B2039037
:1014B000039890FBF4F104FB110008BB002003909B
:1014C00025E005EB850000EBC500ED4901EB400090
:1014D000801CC05D012101FA08F1084020B15A4684
:1014E00049463046FFF7CDFC701C86B20098301A92
:1014F000A04205D1009E09F101001FFA80F906E023
:1015000008F1010000F0FF08B8F1080FB5DB00BFDB
:10151000781CC7B201988742ACDB00BF681C85B25B
:1015200002988542FFF67AAFBDE8FF9F2DE9FE4F96
:101530008046894617469A46DDE90D460C9D36E001
:101540000C2C09D153463A4649464046CDE901465E
:101550000095FFF741FF25E0102C09D153463A468C
:1015600049464046CDE901460095FFF79CFE19E04B
:10157000182C09D153463A4649464046CDE9014622
:101580000095FFF7EFFD0DE0202C09D153463A46B8
:1015900049464046CDE901460095FFF74AFD01E086
:1015A000BDE8FE8FBF1C08EB04001FFA80F83878F6
:1015B0000028C5D100BFF3E72DE9FF5F80468A46CA
:1015C00017469B460F9D00200290CDF800802846CC
:1015D00005EBD071C1F347042046E21704EB5272C9
:1015E000D2102146E31704EB5373DB10A4EBC303C3
:1015F0000BB1012300E000231A446A4392B2019226
:10160000A7F12000C7B20AEB0500401E83B208EB29
:101610000400401E82B25146404600F0F5F9002613
:1016200069E00C2D07D107EB4700964901EB8000DC
:10163000805D03901BE0102D05D1934800EB07104F
:10164000805D039013E0182D07D107EB47008F4909
:1016500001EB0010805D039009E0202D05D18C483E
:1016600000EB8710805D039001E0BDE8FF9F4FF025
:1016700000093AE01098C8B9012000FA09F003996E
:10168000084018B1584600F0A6F902E00E9800F0A4
:10169000A2F90298401CC0B20290029890FBF4F1AB
:1016A00004FB1100E8B90020029021E0012000FABB
:1016B00009F00399084020B15A4651464046FFF7C9
:1016C000E0FB08F101001FFA80F80098A8EB000089
:1016D000A04206D1DDF800800AF101001FFA80FA6D
:1016E00006E009F1010000F0FF09B9F1080FC1DBC4
:1016F00000BF701C86B20198864292DB00BFB4E73F
:101700002DE9FE4F06460F4614469846DDE90D5A70
:10171000DDF8309010E0CDE9015ACDF80090227844
:10172000434639463046FFF747FF284605EBD07160
:1017300006EB61018EB2641C20780028EBD1BDE875
:10174000FE8F10B50246012000E050430B1EA1F1B0
:101750000104E1B2F9D110BD2DE9FF4F85B0074674
:1017600091461D46DDE913A600200490304606EBA5
:10177000D071C1F3470B002434E0281B401EC1B2D6
:101780000A20FFF7DEFFB9FBF0F00A21B0FBF1F20F
:1017900001FB12080498A0B9681EA04211DDB8F13F
:1017A000000F0CD1002004FB0B71CDE900A60290C4
:1017B00088B22022129B0699FFF7FEFE10E001205E
:1017C0000490002008F13001CAB204FB0B71CDE98E
:1017D00000A6029088B2129B0699FFF7EDFE00BFAB
:1017E000601CC4B2AC42C8DB09B0BDE8F08F2DE983
:1017F000FF4F2DED020B2DED028B83B00746B0EEAF
:10180000408A1446DDE91486304606EBD071C1F3F8
:10181000470A9FED200A28EE000ABCEEC00A10EE2F
:10182000100A1FFA80FB00253DE0601B401EC1B27C
:101830000A20FFF786FFBBFBF0F00A21B0FBF1F2B4
:1018400001FB1209A01EA84210D10020A11E01FB1D
:101850000A71CDE90086029088B22E220A9B08996F
:10186000FFF7AAFE681CC5B2601CC4B2002009F1D3
:101870003001CAB205FB0A71CDE9008602900BE087
:10188000009D00080C690008806D00087073000856
:10189000408500080000C84288B20A9B0899FFF7FB
:1018A0008BFE681CC5B2A542BFDB03B0BDEC028B4A
:1018B00006B0BDE8F08F2DE9F05F07468846154673
:1018C0001E46DDF82890002408EB0600401E83B277
:1018D0007819401E82B24146384600F095F8A2467B
:1018E00018E04FF0000B0FE0012101EB440119F863
:1018F000010000F06AF819F8140000F066F8641CA2
:101900000BF101001FFA80FBB345EDDB0AF101008A
:101910001FFA80FAAA45E4DBBDE8F09F1CB501215F
:101920005F2001F0FEF84FF48050009001208DF808
:10193000040000208DF8060003208DF8050001202A
:101940008DF807006946A74800F048FE4FF4805123
:10195000A44800F0BFFE48F23200009001208DF84C
:10196000040000208DF8060003208DF805000120FA
:101970008DF8070069469C4800F030FE48F23201BD
:10198000994800F0A7FE1CBD70B50446002519E07B
:101990004FF48051934800F09FFE04F0800020B186
:1019A0002021914800F096FE03E020218E4800F0AF
:1019B00093FE4FF480518B4800F08CFE6006040EBD
:1019C000681CC5B2082DE3DB70BD10B50446204687
:1019D000FFF7DAFF10BD10B504462012FFF7D4FF61
:1019E000E0B2FFF7D1FF10BD10B504464FF400413F
:1019F0007D4800F071FE2046FFF7C6FF4FF400411E
:101A0000794800F067FE10BD2DE9F04107460C460D
:101A100015461E462A20FFF7E7FF3846FFF7DBFF93
:101A20002846FFF7D8FF2B20FFF7DEFF2046FFF701
:101A3000D2FF3046FFF7CFFF2C20FFF7D5FFBDE8E0
:101A4000F08110B5FFF76AFF1021674800F044FEEF
:101A5000642000F02DF91021634800F03BFE642063
:101A600000F026F90221604800F034FE642000F006
:101A70001FF91120FFF7B8FF782000F019F9362080
:101A8000FFF7B2FF0020FFF7A0FF3A20FFF7ACFFFF
:101A90000520FFF79AFFB220FFF7A6FF0C20FFF703
:101AA00094FF0C20FFF791FF0020FFF78EFF3320FB
:101AB000FFF78BFF3320FFF788FFB720FFF794FF76
:101AC0003520FFF782FFBB20FFF78EFF3720FFF79F
:101AD0007CFFC020FFF788FF2C20FFF776FFC22095
:101AE000FFF782FF0120FFF770FFC320FFF77CFFA5
:101AF0001220FFF76AFFC420FFF776FF2020FFF7D0
:101B000064FFC620FFF770FF0F20FFF75EFFD020B5
:101B1000FFF76AFFA420FFF758FFA120FFF755FF4A
:101B2000E020FFF761FFD020FFF74FFF0420FFF711
:101B30004CFF0D20FFF749FF1120FFF746FF132050
:101B4000FFF743FF2B20FFF740FF3F20FFF73DFF4C
:101B50005420FFF73AFF4C20FFF737FF1820FFF71C
:101B600034FF0D20FFF731FF0B20FFF72EFF1F2062
:101B7000FFF72BFF2320FFF728FFE120FFF734FFBB
:101B8000D020FFF722FF0420FFF71FFF0C20FFF7F4
:101B90001CFF1120FFF719FF1320FFF716FF2C2061
:101BA000FFF713FF3F20FFF710FF4420FFF70DFF63
:101BB0005120FFF70AFF2F20FFF707FF1F20FFF735
:101BC00004FF1F20FFF701FF2020FFF7FEFE232068
:101BD000FFF7FBFE2120FFF707FF2920FFF704FF97
:101BE00010BD000000180240000C024010B5044671
:101BF0006FF0040000F07AFAE11704EB5171C1F3C1
:101C0000C701394A11701046007800EB4001C1EB62
:101C1000C0104FF6FF7101EAC0003449088010BDC2
:101C20000146314A12784A434FF0E0235A610022BC
:101C30009A611A46126942F001021A6100BF4FF020
:101C4000E022106900F001021AB100F48032002A8B
:101C5000F5D04FF0E022126922F001024FF0E023AC
:101C60001A6100229A6170470146204A12884A434D
:101C70004FF0E0235A6100229A611A46126942F03D
:101C800001021A6100BF4FF0E022106900F001026A
:101C90001AB100F48032002AF5D04FF0E022126928
:101CA00022F001024FF0E0231A6100229A6170478E
:101CB00070B504464FF4077094FBF0F0C6B24FF4D1
:101CC000077094FBF0F100FB114085B205E04FF482
:101CD0000770FFF7C9FF701EC6B2002EF7D115B10D
:101CE0002846FFF7C1FF70BD260000202800002015
:101CF00000BF704700BF704770B504460D46E1B2A3
:101D0000B94801F0CDFF00BF8021B74802F078F854
:101D10000028F9D0204670BD10B5044600BF02F07F
:101D20004EFD0028FBD002F033FD10BD0FB438B5D6
:101D30000446E0B202F058FF06A800906A46002070
:101D4000059903F05AF9054600200090284638BC52
:101D50005DF814FB10B596B00446A34801F086FE6A
:101D60000121084600F0DDFE0121102000F031FFC6
:101D7000072209219D4800F0BEFC07220A219B484A
:101D800000F0B9FC4FF4C060149002208DF85400AC
:101D900003208DF8550000208DF8560001208DF8A5
:101DA000570014A9914800F019FC10940020ADF8D8
:101DB0004400ADF84600ADF84800ADF84C000C20EA
:101DC000ADF84A0010A9884801F0B7FE25208DF82B
:101DD0003C0002208DF83D0001208DF83E008DF87A
:101DE0003F000FA800F035F944208DF83C00022098
:101DF0008DF83D008DF83E0001208DF83F000FA8C2
:101E000000F027F946208DF83C0002208DF83D00B7
:101E100003208DF83E0001208DF83F000FA800F050
:101E200018F9012240F224416F4801F0C4FF012259
:101E300040216D4801F0B6FF012280216A4801F07F
:101E4000B1FF0121880500F06CFE694800F06CF9D3
:101E50004FF0006000906448001D019065480290BA
:101E6000002003904FF480600490002005904FF410
:101E70008060069000200790089009904FF4403051
:101E80000A9000200B9003200C9000200D900E90E3
:101E90006946574800F0EAF90121554800F020FA58
:101EA0005348303000F040F900BF5148303000F066
:101EB00064FA0028F9D14FF0006000904A48001DF4
:101EC00001904D48029040200390000104900020B2
:101ED00005904FF4806006900020079008900990CC
:101EE0004FF480300A9000200B900C900D900E90D3
:101EF00069463F48303000F0B9F9012210213C48D2
:101F0000303000F07AFA00213948303000F0E8F93A
:101F10000121354801F099FE16B010BD10B540F210
:101F20002441314801F082FFE8B1012033490870B3
:101F300000212F4800F0D4F92D4800F0F4F9C0F545
:101F400080602F4908802F49294800F042FA4FF459
:101F50008061274800F0E5F90121254800F0C0F92B
:101F6000214801F0A1FE40F227711F4801F048FF0F
:101F700028B9002240F226611B4801F01CFF10BD69
:101F800010B54FF020511A48303000F006FA80B1F9
:101F90004FF020511648303000F01BFA0021144851
:101FA000303000F09DF9012240F226610E4801F028
:101FB00002FF10BD70B504460D462A4621460E4864
:101FC00004F019FA00BF0A48303000F0D6F90028B2
:101FD000F9D129460648303000F0A3F90121044820
:101FE000303000F07DF970BD00100140000002406B
:101FF0008864024096C4012096C801203400002065
:1020000032000020000800200948804709480047A6
:10201000FEE7FEE7FEE7FEE7FEE7FEE7FEE7FEE798
:10202000FEE7FEE704480549054A064B70470000F5
:10203000E9030008AD01000820D2012020D80120CA
:1020400020D4012020D4012032490143324A1160BA
:10205000704770B5002100230F22C4781CB32E4CAA
:10206000246804F4E064C4F5E064C4F30721C1F11A
:102070000404E3B20A4144789C40E1B284781440FD
:1020800021430C07210E254C05786155047804F096
:102090001F050124AC4005786D11AD0005F1E02568
:1020A000C5F8004109E0047804F01F050124AC40A4
:1020B0001B4D0678761145F8264070BD194A0A4036
:1020C0000243154B1B1F1A60704739B1124A121D8B
:1020D00012680243104B1B1D1A6006E00E4A121DC7
:1020E000126882430C4B1B1D1A607047042808D1EC
:1020F0004FF0E021096941F004014FF0E022116145
:1021000007E04FF0E021096921F004014FF0E022DF
:10211000116170470000FA050CED00E000E400E0FA
:1021200080E100E080FFFF1F016821F001010160F4
:102130000021016041608160C16001612121416134
:10214000DB49884204D13D21D94A103A91608CE0A4
:10215000D7491831884205D14FF47461D44A103AF6
:10216000916082E0D2493031884205D14FF4741138
:10217000CF4A103A916078E0CD494831884205D184
:102180004FF07461CA4A103A91606EE0C8496031FC
:10219000884204D1C749C64A103AD16065E0C449B3
:1021A0007831884204D1C449C14A103AD1605CE018
:1021B000BF499031884204D1C049BD4A103AD1602C
:1021C00053E0BB49A831884205D14FF03D51B84A90
:1021D000103AD16049E0BA49884204D13D21B84A59
:1021E000083A116041E0B6491831884205D14FF4F0
:1021F0007461B34A083A116037E0B149303188421E
:1022000005D14FF47411AE4A083A11602DE0AC4983
:102210004831884205D14FF07461A94A083A1160EB
:1022200023E0A7496031884204D1A249A44A121F81
:1022300011601AE0A2497831884204D19E49A04A2F
:10224000121F116011E09E499031884204D19B49D0
:102250009B4A121F116008E09949A831884204D1B5
:102260004FF03D51964A121F1160704710B5002281
:102270000268944B1A40CC680B6823434C69234393
:102280008C692343CC6923430C6A23434C6A234360
:102290008C6A23434C6B23438C6B23431A430260A9
:1022A000426922F00702D1E90B3423431A43426109
:1022B0000B6943604B6883608B68C36010BD00216D
:1022C000016041608160C160016141618161C16102
:1022D000016241628162C16201634163816370474F
:1022E00021B1026842F00102026003E0026822F0BC
:1022F00001020260704721B1026842F400420260AC
:1023000003E0026822F400420260704721B10268D3
:1023100042F02002026003E0026822F02002026024
:102320007047416070470146486880B2704722B1EB
:10233000036843F40023036003E0036823F40023ED
:1023400003600161704721B1026842F4802202609B
:1023500003E0026822F48022026070470AB1016142
:1023600000E0C1607047014600200A6802F40022C4
:102370000AB1012000E000207047014600200A68F1
:1023800002F001020AB1012000E00020704701467E
:1023900000204A6902F03800704730B503460A460B
:1023A00000200024464DAB4202D24149103901E0E1
:1023B0004349103902F000550DB14C6800E00C683B
:1023C000414D2C4004EA02050DB1012000E000203F
:1023D00030BD02463A4B9A4202D23548103801E0ED
:1023E0003748103801F000531BB1374B0B40C36026
:1023F00002E0354B0B408360704710B501F080035D
:102400004BB122B1436943F08003436103E0436968
:1024100023F08003436180290BD02AB1036801F0C7
:102420001E042343036004E0036801F01E04A34379
:10243000036010BD70B50246002000240025204E28
:10244000B24202D21A4B103B01E01D4B103B1F4E13
:102450000E4036B11E2606EAD124166806EA0405A7
:1024600002E0566906F0800501F000560EB15C6886
:1024700000E01C68144E344004EA010616B10DB1A8
:10248000012000E0002070BD02460D4B9A4202D2AE
:102490000748103801E00A48103801F000531BB11A
:1024A000094B0B40C36002E0074B0B408360704751
:1024B000106002403D000020400F002000003D2041
:1024C000106402403F801CF07D0F7D0F3C0F3C0FDD
:1024D00010B504469948844208D10121084600F00D
:1024E00089FB0021012000F085FB76E094488442BE
:1024F00008D10121022000F07DFB0021022000F024
:1025000079FB6AE08F48844208D10121042000F061
:1025100071FB0021042000F06DFB5EE08A488442DC
:1025200008D10121082000F065FB0021082000F0FF
:1025300061FB52E08548844208D10121102000F05F
:1025400059FB0021102000F055FB46E080488442F2
:1025500008D10121202000F04DFB0021202000F0B7
:1025600049FB3AE07B48844208D10121402000F039
:1025700041FB0021402000F03DFB2EE076488442E4
:1025800008D10121802000F035FB0021802000F0DF
:1025900031FB22E07148844208D10121801500F00E
:1025A00029FB0021A01500F025FB16E06C488442B1
:1025B00008D10121401500F01DFB0021601500F03D
:1025C00019FB0AE06748844207D10121001500F099
:1025D00011FB0021201500F00DFB10BDF0B50A46DF
:1025E00000210023002400BF3DE0012505FA01F38E
:1025F000156805EA03049C4234D105684F000326A0
:10260000BE40B543056015794E00B54006683543B8
:1026100005601579012D02D01579022D16D1856836
:102620004F000326BE40B543856055794E00B54046
:10263000866835438560456801268E40B543456010
:10264000456896798E40B6B235434560C5684F00FF
:102650000326BE40B543C560D5794E00B540C66877
:102660003543C560491C1029BFD3F0BD4FF6FF713B
:1026700001600021017141718171C171704708B51C
:102680004FF480320092009A0A430092009AC2618D
:10269000C161009AC261C2690092C269009208BD1C
:1026A0000246002013690B400BB1012000E000201E
:1026B00070470146086980B270470246002053699E
:1026C0000B400BB1012000E0002070470146486933
:1026D00080B27047816170470A04826170470AB115
:1026E000816101E00B048361704741617047426979
:1026F0004A4042617047F0B5002300244D07ED0EBB
:1027000002FA05F3CE1000F1200555F826504E07C9
:10271000F70E0F26BE40B543CF1000F1200646F855
:102720002750CE1000F1200555F8265045EA030445
:10273000CE1000F1200545F82640F0BD0000024013
:102740000004024000080240000C02400010024059
:102750000014024000180240001C02400020024009
:102760000024024000280240F648006840F00100C2
:10277000F44908600020F34908310860F148006816
:10278000F1490840EF490860F048091D0860F04829
:10279000EC4984310860ED481038091D0860E948AB
:1027A000006820F48020E74908600020E5490C31EA
:1027B0000860E4498C31086070470021E14A921CAE
:1027C000117011460870704710B5014600220023B1
:1027D00000204A11012A02D1DA4C236808E0022ABB
:1027E00003D1D84C7034236802E0D64C743423688B
:1027F00001F01F02012494401C400CB1012000E0B4
:10280000002010BD38B5002000900024002500BF36
:102810003120FFF7D9FF05460098401C0090009832
:10282000B0F5A04F01D0002DF2D03120FFF7CCFF42
:1028300008B1012400E00024204638BD01460020F4
:10284000C04A106820F0F80040EAC10010607047EC
:10285000C049086070470021BA4A70321170117087
:10286000012802D004280AD104E00121B54A7032BF
:10287000117005E00521B34A7032117000E000BF0D
:1028800000BF7047B4490860704770B5049C41EAC6
:1028900082150126C6EB530645EA0645054345EA7F
:1028A0000465A84E361D356070BDAA49086670479C
:1028B00010B5830143EA016343EA0273A14C8434F7
:1028C000236010BDA3498866704710B5830143EAB1
:1028D000016343EA02739B4C8834236010BD9D4919
:1028E000086770479B49C864704702460020954BB3
:1028F0000833186820F0EC6042EA01031843914B5A
:10290000083318607047024600208E4B0833186861
:1029100020F0784042EA010318438A4B08331860DC
:10292000704701460020874A0832106820F00300F3
:1029300008431060704783480830006800F00C00BE
:102940007047014600207F4A0832106820F0F000EE
:10295000084310607047014600207A4A0832106828
:1029600020F4E05008431060704701460020754A8B
:102970000832106820F4604040EAC10010607047DF
:10298000F0B50021002200240225002602236D4F0D
:1029900008373F6807F00C0121B1042905D0082948
:1029A00037D105E06D4F076036E06D4F076033E0CB
:1029B000644F3F1D3F68C7F38056624F3F1D3F681D
:1029C00007F03F036EB1664FB7FBF3F7DFF874C152
:1029D0000CF1040CDCF800C0CCF3881C07FB0CF4F1
:1029E0000CE05E4FB7FBF3F7DFF858C10CF1040CB5
:1029F000DCF800C0CCF3881C07FB0CF4514F3F1DE2
:102A00003F68C7F301477F1C7D00B4FBF5F7076003
:102A100002E0524F076000BF00BF4A4F08373F68CF
:102A200007F0F00109094F4F7A5C0768D74047600B
:102A3000444F08373F6807F4E051890A494F7A5CF0
:102A40004768D74087603F4F08373F6807F46041C9
:102A5000490B444F7A5C4768D740C760F0BD0021FE
:102A600000F44072B2F5407F0AD1364A083211684C
:102A700021F4F8113C4A02401143324A08321160F5
:102A8000304A70321268C0F30B031A432D4B703377
:102A90001A60704730494439086070472E49403900
:102AA0000860704731490860704701460020254A98
:102AB0008C32106820F440100843106070470146C3
:102AC0000020204A8C32106820F440000843106037
:102AD0007047014600201B4A8C32106820F01F000E
:102AE0004A1E1043174A8C3210607047014600207E
:102AF000144A8C32106820F4F8504A1E40EA022032
:102B0000104A8C3210607047014600200D4A8C320A
:102B1000106820F440300843106070471449086082
:102B2000704739B1074A303212680243054B3033DF
:102B30001A6006E0034A303212688243014B303398
:102B40001A60704700380240FFFFF6EA1030002498
:102B50000030002000004742800E47420024F4006D
:102B600000127A0035000020FFFCFF0F5C01474295
:102B7000E011474229B1934A12680243914B1A600F
:102B800004E0904A126882438E4B1A60704739B154
:102B90008C4A121D126802438A4B1B1D1A6006E004
:102BA000884A121D12688243864B1B1D1A607047AB
:102BB00039B1844A0C3212680243824B0C331A60DA
:102BC00006E0804A0C32126882437E4B0C331A6056
:102BD000704739B17B4A103212680243794B103387
:102BE0001A6006E0774A103212688243754B103340
:102BF0001A60704739B1734A243A12680243714B24
:102C0000243B1A6006E06F4A243A126882436D4BF7
:102C1000243B1A60704739B16A4A203A126802436D
:102C2000684B203B1A6006E0664A203A12688243ED
:102C3000644B203B1A60704739B1624A1C3A1268F3
:102C40000243604B1C3B1A6006E05E4A1C3A126865
:102C500082435C4B1C3B1A60704739B1594A143AA5
:102C600012680243574B143B1A6006E0554A143A67
:102C700012688243534B143B1A60704739B1514A72
:102C8000103A126802434F4B103B1A6006E04D4A5F
:102C9000103A126882434B4B103B1A60704739B1AF
:102CA000484A1C3212680243464B1C331A6006E045
:102CB000444A1C3212688243424B1C331A607047EC
:102CC00039B1404A2032126802433E4B20331A6029
:102CD00006E03C4A2032126882433A4B20331A60A5
:102CE000704739B1374A243212680243354B2433D6
:102CF0001A6006E0334A243212688243314B24338F
:102D00001A60704739B12F4A2C32126802432D4B9A
:102D10002C331A6006E02B4A2C3212688243294B6E
:102D20002C331A60704739B1264A30321268024398
:102D3000244B30331A6006E0224A30321268824354
:102D4000204B30331A607047012808D11D493C31AF
:102D5000096841F008011B4A3C32116007E019493B
:102D60003C31096821F00801164A3C321160704775
:102D700039B1144A273A12780243124B273B1A7092
:102D800006E0104A273A127882430E4B273B1A700E
:102D900070470C484030006840F08070094940316D
:102DA0000860704701460020064A283A12680A4027
:102DB0000AB1012000E0002070470249263908705E
:102DC000704700003438024010B50446FE48844283
:102DD00008D101210846FFF751FF00210120FFF72C
:102DE0004DFF9DE0B4F1804F08D101210846FFF767
:102DF00034FF00210120FFF730FF91E0F3488442C7
:102E000008D101210220FFF728FF00210220FFF74F
:102E100024FF85E0EE48844208D101210420FFF719
:102E20001CFF00210420FFF718FF79E0E9488442E5
:102E300008D101210820FFF710FF00210820FFF72B
:102E40000CFF6DE0E448844208D101211020FFF717
:102E500004FF00211020FFF700FF61E0DF488442FB
:102E600008D101212020FFF7F8FE00212020FFF7E4
:102E7000F4FE55E0DA48844208D101210220FFF730
:102E8000FDFE00210220FFF7F9FE49E0D54884420B
:102E900009D101210804FFF7F1FE00214FF4803031
:102EA000FFF7ECFE3CE0D048844209D10121480400
:102EB000FFF7E4FE00214FF40030FFF7DFFE2FE0C4
:102EC000CA48844209D101218804FFF7D7FE0021B6
:102ED0004FF48020FFF7D2FE22E0C548844208D19B
:102EE00001214020FFF7B9FE00214020FFF7B5FE89
:102EF00016E0C048844208D101218020FFF7ADFED2
:102F000000218020FFF7A9FE0AE0BB48844207D1D8
:102F100001218015FFF7A1FE0021A015FFF79DFEFE
:102F200010BD00220288A84B98420ED0AC4B9842AC
:102F30000BD0B0F1804F08D0A44B984205D0A44BE1
:102F4000984202D0A34B984204D14FF68F731A4097
:102F50004B881A43A04B984207D0A04B984204D00C
:102F60004FF6FF431A400B891A4302804B68C36235
:102F70000B880385944B984202D0994B984201D11B
:102F80008B7A03860123838270474FF0FF314160C3
:102F90000021018001814180817270470185828218
:102FA00070470A46002101884FF68F73194011437C
:102FB0000180704741627047C16270470146486AAC
:102FC00070470146088D704721B1028842F0020225
:102FD000028004E002884FF6FD731A4002807047B9
:102FE00021B1028842F00402028004E002884FF618
:102FF000FB731A400280704721B1028842F08002C0
:10300000028004E002884FF67F731A400280704706
:1030100002884FF6F7731A40028002880A43028042
:10302000704702884FF6FF431A40028002880A4325
:103030000280704721B1028842F00102028004E060
:1030400002884FF6FE731A400280704770B5002464
:1030500000220023058C4FF6FE7635400584028C55
:103060008388048B4FF68F752C40B51E2C400D883D
:103070002C43751E2A408D892A434D882A43524D80
:10308000A84202D0564DA84213D14FF6F7752A40F8
:10309000CD892A434FF6FB752A408D882A434FF687
:1030A000FF652B404FF6FF552B400D8A2B434D8A71
:1030B0002B43838004838D684563028470BD70B5A3
:1030C000002400220023058C4FF6EF76354005845E
:1030D000028C8388048B48F6FF752C404FF6FF4521
:1030E0002C400D884FF6FF7606EA05252C434FF657
:1030F000DF752A408D8906EA05152A434D8806EAC0
:1031000005152A43304DA84202D0354DA8421DD1A5
:103110004FF67F752A40CD894FF6FF7606EA0515F2
:103120002A434FF6BF752A408D8806EA05152A43C3
:103130004FF6FF352B404FF2FF752B400D8A06EA04
:1031400085052B434D8A06EA85052B43838004833E
:103150008D688563028470BD70B500240022002351
:10316000058C4FF6FF6635400584028C8388848B7E
:103170004FF68F752C404FF6FC752C400D882C4374
:103180004FF6FF552A408D894FF6FF7606EA052552
:103190002A434D8806EA05252A430B4DA84202D052
:1031A0000F4DA84238D14FF2FF752A40CD894FF616
:1031B000FF7606EA05252A434FF6FF352A408D881B
:1031C00006EA05252A4319E00000014000040040FA
:1031D00000080040000C00400010004000140040B7
:1031E000000401400040014000440140004801400B
:1031F00000180040001C0040002000404EF6FF7503
:103200002B404DF6FF752B400D8A06EA05152B4322
:103210004D8A06EA05152B43838084838D68C56338
:10322000028470BD70B5002200230024058C4EF688
:10323000FF7635400584038C8488828B48F6FF75C1
:103240002A404FF6FF452A400D884FF6FF7606EAE2
:1032500005252A434DF6FF752B408D8906EA053575
:103260002B434D8806EA05352B43FE4DA84202D07C
:10327000FD4DA84208D14BF6FF752C400D8A4FF644
:10328000FF7606EA85152C43848082838D68056469
:10329000038470BD00210180418081808160818133
:1032A000C18101824182704770B50346002000242D
:1032B0001846183001258D40ACB21D8CA5431D84E5
:1032C00009B108290AD100EB610005684FF68F7635
:1032D000354005600568154305600FE00D1FC5F317
:1032E0004E052844056848F6FF76354005600568B8
:1032F0004FF6FF7606EA02263543056070BD41634E
:10330000704781637047C1637047016470470A4624
:103310000021018B4FF68F731940114301837047D1
:103320000A460021018B48F6FF7319404FF6FF73E0
:1033300003EA02231943018370470A460021818B67
:103340004FF68F7319401143818370470A4600215D
:10335000818B48F6FF7319404FF6FF7303EA02238F
:103360001943818370470A460021018B4FF6F7739A
:1033700019401143018370470A460021018B4FF227
:10338000FF7319404FF6FF7303EA022319430183C9
:1033900070470A460021818B4FF6F773194011439D
:1033A000818370470A460021818B4FF2FF731940D9
:1033B0004FF6FF7303EA02231943818370470A46DD
:1033C0000021018B4FF6FB731940114301837047B5
:1033D0000A460021018B4FF6FF3319404FF6FF7369
:1033E00003EA02231943018370470A460021818BB7
:1033F0004FF6FB7319401143818370470A46002141
:10340000818B4FF6FF3319404FF6FF7303EA022317
:103410001943818370470A460021018B4FF67F7361
:1034200019401143018370470A460021018BC1F303
:103430000E014FF6FF7303EA02231943018370471D
:103440000A460021818B4FF67F7319401143818317
:1034500070470A460021818BC1F30E014FF6FF73BE
:1034600003EA02231943818370470A460021018C35
:103470004FF6FD7319401143018470470A4600213D
:10348000018C4FF6F77319401143018470470A46C7
:103490000021018C4FF6DF7319404FF6FF7303EAEA
:1034A00002131943018470470A460021018C4FF62C
:1034B0007F7319404FF6FF7303EA02131943018427
:1034C00070470A460021018C4FF6FF5319404FF612
:1034D000FF7303EA02231943018470470A4600215F
:1034E000018C4FF2FF7319404FF6FF7303EA02237A
:1034F0001943018470470A460021018C4DF6FF7381
:1035000019404FF6FF7303EA0233194301847047F1
:1035100030B5002301248C40A3B2048C9C43048466
:10352000048C02FA01F5ADB22C43048430BD30B5F1
:10353000002304248C40A3B2048C9C430484048C98
:1035400002FA01F5ADB22C43048430BD828B4FF2F8
:10355000FF331A408283828B4FF6FF7303EA012305
:103560001A4382837047F0B50C46154600210022AD
:103570000026078C4EF6FF7C07EA0C070784818B38
:10358000028C4FF6FF7707EA043640F6FF473940D2
:103590004FF6FF7707EA052739434FF6FF7707EA2B
:1035A0000337394345F6FF773A4046F480573A43AC
:1035B00081830284F0BD828B4FF6F3731A408283BD
:1035C000828B0A4382837047F0B50C461546002172
:1035D00000220026078C4FF6FF6C07EA0C070784D1
:1035E000818B028C4FF6FF7707EA04264FF60C77A3
:1035F00039404FF6FF7707EA03172F4339434FF25D
:10360000FF573A4046F480773A4381830284F0BD05
:10361000028B4FF2FF331A400283028B4FF6FF7387
:1036200003EA01231A4302837047F0B50C4615469E
:10363000002100220026078C4FF6EF7C07EA0C07DA
:103640000784018B028C4FF6FF7707EA041640F6D9
:10365000FF4739404FF6FF7707EA033739434FF604
:10366000FF7703E0000001400004014007EA05275E
:1036700039434FF65F773A4046F010073A430183EB
:103680000284F0BD028B4FF6F3731A400283028B63
:103690000A4302837047F0B50C461546002100220C
:1036A000068C4FF6FE773E400684018B028C4FF667
:1036B0000C7631407E1C06EA03162E4331434FF64A
:1036C000F576324044F00106324301830284F0BDB6
:1036D00070B505460C46208850B92389A2886188B8
:1036E0002846FFF7D8FFE1882846FFF7CBFF25E003
:1036F000208804280AD12389A28861882846FFF7F8
:1037000094FFE1882846FFF783FF17E02088082808
:103710000AD12389A28861882846FFF755FFE188EE
:103720002846FFF748FF09E02389A28861882846D8
:10373000FFF719FFE1882846FFF708FF70BD002159
:1037400001804180012181800021C1800181704779
:103750002DE9F04105460C4600260127608808B98E
:10376000022600E00026A088012801D1022700E0FF
:1037700001272088A0B92389A28861882846FFF7FD
:103780008AFFE1882846FFF77DFF23893A463146C4
:103790002846FFF74AFFE1882846FFF739FF13E084
:1037A0002389A28861882846FFF73FFFE1882846E1
:1037B000FFF72EFF23893A4631462846FFF76BFF75
:1037C000E1882846FFF75EFFBDE8F0810146486BBF
:1037D00070470146886B70470146C86B70470146C9
:1037E000086C70470A884B881A438B881A43CB8829
:1037F0001A430B891A434B891A438B891A43A0F841
:10380000442070470021018041808180C180018176
:1038100041818181704731B1B0F8442042F40042C7
:10382000A0F8442005E0B0F84420C2F30E02A0F84E
:103830004420704721B1828842F00402828004E073
:1038400082884FF6FB731A408280704721B18288CC
:1038500042F00102828004E082884FF6FE731A4033
:10386000828070471AB183890B43838102E0838988
:103870008B43838170478182704702460020138A00
:103880000B400BB1012000E000207047CA430282C8
:10389000704730B50246002000230024158A05EA4F
:1038A0000103958905EA010413B10CB1012000E080
:1038B000002030BDCA430282704741EA0203A0F8EB
:1038C000483070471AB183890B43838102E08389B2
:1038D0008B438381704721B1828842F00802828045
:1038E00004E082884FF6F7731A408280704701899E
:1038F0004FF6F8721140018170470A460021018994
:103900004FF68F73194011430181704730B504465B
:103910000D4629462046FFF7F0FF208940F00700BA
:10392000208130BD2DE9F04104460D4616461F4664
:10393000602D06D13B46012231462046FFF775FE39
:1039400005E03B46012231462046FFF7A4FE29460A
:103950002046FFF7D2FF208940F007002081BDE814
:10396000F08130B50C4600210189C9B24FF6FF75D0
:1039700005EA0325154325432943018130BD2DE97F
:10398000F04105460E4617469846002443463A46FF
:1039900031462846FFF7E5FF2C894FF6F8700440C2
:1039A00044F007044FF68F70044044F070042C81FB
:1039B000BDE8F081F0B504460D4616461F463B466D
:1039C000324629462046FFF7CCFF208940F480404C
:1039D0002081F0BD82884FF68F731A4082808288E2
:1039E0000A438280704702894FF6F8731A400281B9
:1039F00002890A430281704702894FF67F731A4099
:103A0000028102890A4302817047F0B50C461546CF
:103A10001E460021002200230189028B038C4FF6F1
:103A2000F877394021434FF6FC473A4040F20117FE
:103A30003A434FF6DD773B404FF6FF7707EA06172C
:103A40002F433B43018102830384F0BD21B182886F
:103A500042F08002828004E082884FF67F731A4031
:103A600082807047A0F850107047000010B50446DF
:103A7000FA48844208D101211020FFF7FFF8002105
:103A80001020FFF7FBF857E0F548844209D10121E7
:103A90004804FFF7E2F800214FF40030FFF7DDF8AB
:103AA0004AE0F048844209D101218804FFF7D5F8A3
:103AB00000214FF48020FFF7D0F83DE0EA4884422F
:103AC00009D10121C804FFF7C8F800214FF40020F4
:103AD000FFF7C3F830E0E548844209D10121080529
:103AE000FFF7BBF800214FF48010FFF7B6F823E092
:103AF000DF48844208D101212020FFF7BFF80021D0
:103B00002020FFF7BBF817E0DA48844209D10121F1
:103B10008807FFF7A2F800214FF08040FFF79DF8DB
:103B20000AE0D548844207D101214005FFF795F806
:103B300000216005FFF791F810BD2DE9FF4705460C
:103B40000E460024A14600BFA046B08900B100BFC8
:103B50002C8A24F44054F08804432C82AC8941F22E
:103B60000C608443B0883189084371890843044359
:103B7000AC81AC8A24F44074B0890443AC826846BA
:103B8000FEF7FEFEB548854202D0B948854202D113
:103B9000DDF80C9001E0DDF80890A88900F4004001
:103BA00040B109EBC90000EB091031684900B0FBD6
:103BB000F1F707E009EBC90000EB09103168890053
:103BC000B0FBF1F76420B7FBF0F004012009642199
:103BD00001FB1078A88900F4004040B1322000EBCE
:103BE000C800B0FBF1F000F00700044308E0322009
:103BF00000EB08106421B0FBF1F000F00F0004436B
:103C00002C81BDE8FF874FF41651016000218180AF
:103C1000C18001810C21418100218181704710B553
:103C200002460020108A20F470600B884C882343E1
:103C30008C882343CC8823431843108210BD002175
:103C4000018041808180C180704721B1828942F426
:103C50000052828104E082894DF6FF731A4082810E
:103C60007047028B02F47F420283028B0A43028375
:103C7000704721B1828942F40042828103E0828947
:103C8000C2F30E028281704721B1828A42F400623F
:103C9000828204E0828A4FF2FF731A408282704768
:103CA000C1F308028280704701468888C0F308008B
:103CB0007047028A4FF6F0731A400282028A0A4362
:103CC0000282704721B1828942F00202828104E0BF
:103CD00082894FF6FD731A408281704782894FF2C4
:103CE000FF731A40828182890A4382817047028A67
:103CF0004FF6DF731A400282028A0A43028270473B
:103D000021B1028A42F48042028204E0028A4BF628
:103D1000FF731A4002827047818941F0010181815D
:103D2000704721B1828A42F00802828204E0828ACE
:103D30004FF6F7731A4082827047028BD2B2028329
:103D4000028B42EA01220283704721B1828A42F04B
:103D50002002828204E0828A4FF6DF731A40828258
:103D6000704721B1828A42F01002828204E0828A86
:103D70004FF6EF731A4082827047828A4FF6FB73C8
:103D80001A408282828A0A438282704721B1828AE3
:103D900042F00202828204E0828A4FF6FD731A40EA
:103DA000828270471AB1838A0B43838202E0838A3E
:103DB0008B4383827047F0B503460024002600251C
:103DC000002040F66A17B94200D100BF1846C1F37F
:103DD000421401F01F06012707FA06F5012C01D154
:103DE0000C3004E0022C01D1103000E014301AB184
:103DF00007682F43076002E00768AF430760F0BD24
:103E000002460020B1F5007F00D100BF13880B40AF
:103E10000BB1012000E00020704701F40072B2F500
:103E2000007F00D100BFCA430280704770B50246D0
:103E3000002400230025002040F66A16B14200D17C
:103E400000BFC1F3421501F01F03012606FA03F378
:103E5000012D13D19689334017E000000010014076
:103E60000044004000480040004C0040005000402A
:103E70000014014000780040007C0040022D02D177
:103E8000168A334001E0968A33400C12012606FA66
:103E900004F41688344013B10CB1012000E0002076
:103EA00070BD10B50022002340F66A14A14200D173
:103EB00000BF0A1201249440A3B2DC43048010BD69
:103EC000002061490860C8601F20486100208861A7
:103ED000C86108624862704700215B4A126844F278
:103EE00001039A43584B1A601A46116840F6F27261
:103EF0009143028843881A4383881A43C3881A432C
:103F000003891A4343891A4383891A4311434E4A4A
:103F1000116070470021018041808180C180018152
:103F20004181818170474188028841EA0241464AC5
:103F30001162C188828841EA0241434A5162704756
:103F400030B14149096841F004013F4A116005E080
:103F50003D49096821F004013B4A1160704701782E
:103F6000427841EA0221827841EA0241C27841EA7C
:103F70000261354A9161704730B13349096841F0B7
:103F80000801314A116005E02F49096821F0080154
:103F90002D4A1160704730B12B49096841F48041C6
:103FA000294A116005E02849096821F48041264A20
:103FB0001160704730B12449096841F00101224A7B
:103FC000116005E02049096821F001011E4A1160D5
:103FD00070471D48806A704729B11B4AD268024366
:103FE000194BDA6006E0184AD268C3439BB21A4004
:103FF000154BDA60704710B50146002000230A1304
:1040000012B9114CA36806E0022A02D10E4C636873
:1040100001E00D4C236903EA01040CB1012000E02A
:10402000002010BD08494861704701460020002269
:10403000054B1B6903EA01020AB1012000E00020E0
:1040400070470149486170470000055070B5FE4C4B
:10405000A821204602F014FA032020616061FBA031
:10406000A061FD49E1614FF4806121620021A162FC
:104070006162E162F5A02066F84961668021A1666F
:1040800000212167E1666167002505E0C5F10F00A9
:10409000F349085C60556D1C102DF7D370BD2DE9F8
:1040A000F05F0446894617464FF0000AE56800BFF6
:1040B000D4F81080A84503D9A8EB0500461E04E0FB
:1040C000A5EB0800401CA1680E1AA068401BB04276
:1040D00001D9304601E0A068401B0646BE4201D22D
:1040E000304600E038460646606800EB050B324675
:1040F0004946584602F07FF9B244B144BF1B3544EB
:10410000A068A84200D10025E560002FD0D150461C
:10411000BDE8F09F2DE9F047044689461546E6685C
:10412000A068871BAF420AD9606800EB060A2A46DE
:104130004946504602F05FF97019E06014E0B84655
:10414000606800EB060A42464946504602F053F9C1
:10415000A5EB0708D4F804A009EB07014246504636
:1041600002F049F9C4F80C80BDE8F08738B505467F
:104170000C46FF208DF80000BA48005D8DF8010064
:10418000022269462846FFF78AFF38BD10B501466E
:104190000A69CB689A4204D88C68641EE41AA01895
:1041A00001E0D41A601E10BD2DE9F74F82B083469E
:1041B0001746A548009000BF0098007808B9FFF79F
:1041C00045FF00BF0BEB4B019F48183000EBC106C9
:1041D000DDF80C903569D6F80CA04FF00008554575
:1041E00017D9B068441BBC4201D2204600E03846D3
:1041F000044670682844019022464846019902F01E
:10420000FAF8A044A1443F1B2544B068A84200D15D
:104210000025AAEB0504BC4201D2204600E0384646
:1042200004465CB1706828440190224648460199D2
:1042300002F0E1F8A044A1443F1B2544B8F1000F6F
:1042400000D03561404605B0BDE8F08F2DE9F74F4D
:1042500082B0834617467C48009000BF00980078E3
:1042600008B9FFF7F3FE00BF0BEB4B017648603057
:1042700000EBC106DDF80C903569D6F80CA04FF0C4
:104280000008554517D9B068441BBC4201D22046EE
:1042900000E03846044670682844019022464846AB
:1042A000019902F0A8F8A044A1443F1B2544B0683E
:1042B000A84200D10025AAEB0504BC4201D2204649
:1042C00000E0384604465CB17068284401902246FC
:1042D0004846019902F08FF8A044A1443F1B2544B1
:1042E000B8F1000F00D03561404605B0BDE8F08F51
:1042F0002DE9F04104460D461646EFF31180804645
:10430000202080F3118800BF00BF32462946204696
:10431000FFF74AFF074608F0FF0080F3118800BF4F
:1043200000BF3846BDE8F0812DE9F04104460D4656
:104330001646EFF311808046202080F3118800BFDD
:1043400000BF324629462046FFF780FF074608F0A7
:10435000FF0080F3118800BF00BF3846BDE8F08140
:104360002DE9F047074688461646C14607EB470148
:104370003548183000EBC104D4E90301884202D16A
:10438000A068451E0EE0D4E90301884204D22069EA
:10439000E168401A451E05E02069E168401A401EA8
:1043A000A1684518AE420CD92069711B08442061F0
:1043B00003E02069A168401A20612069A168884251
:1043C000F7D2D4E90201451A00BFB5420CD9E16821
:1043D000606800EB010A32464946504602F00BF88D
:1043E000E0683044E06010E0E168606800EB010ADA
:1043F0002A464946504601F0FEFFA9440020E060ED
:10440000761BA068451E002EDFD100BFBDE8F087F7
:104410002DE9F74F82B083461546039801900BEBC8
:104420004B010948183000EBC104D4F81090E6683D
:10443000B14541D8A068801B471EAF421FD300BFC3
:10444000606800EB060A0FE098CC01205465726D9D
:10445000696E616C0000000040CD012040D1012058
:1044600028A20008450000202A465046019901F084
:10447000C2FF7019E060012005B0BDE8F08F4F4425
:10448000AF421FD3A068A0EB0608606800EB060AE5
:1044900042465046019901F0AEFFA5EB080545B133
:1044A000D4F804A0019800EB08012A46504601F018
:1044B000A2FFE5600120DFE7A9EB0600471EAF423F
:1044C00000D3BDE70020D7E72DE9F047074688462F
:1044D0001646C24607EB4701FB4800EBC109D9F875
:1044E000140020B1012811D0022826D11EE0484630
:1044F000FFF74CFE0546B54201D2002405E03446E4
:10450000324651464846FFF705FE18E04846FFF799
:104510003DFE0546B54201D2284600E0304604463D
:10452000224651464846FFF7F5FD08E0324651461F
:104530004846FFF7B4FD044601E0002400BF00BF79
:104540002046BDE8F0872DE9F04707468846164625
:10455000C24607EB4701DC48483800EBC109D9F8EF
:10456000140020B1012811D0022826D11EE04846AF
:10457000FFF70CFE0546B54201D2002405E03446A3
:10458000324651464846FFF7C5FD18E04846FFF75A
:10459000FDFD0546B54201D2284600E030460446FE
:1045A000224651464846FFF7B5FD08E032465146DF
:1045B0004846FFF774FD044601E0002400BF00BF39
:1045C0002046BDE8F0872DE9F04104460D46164629
:1045D000BD4F603F00BF387808B9FFF737FD00BF17
:1045E000EFF311800746202080F3118800BF00BF41
:1045F000324629462046FFF767FF8046F8B280F32F
:10460000118800BF00BF4046BDE8F0812DE9F041B0
:1046100004460D461646AC4F603F00BF387808B9D7
:10462000FFF714FD00BFEFF311800746202080F351
:10463000118800BF00BF324629462046FFF783FF9E
:104640008046F8B280F3118800BF00BF4046BDE845
:10465000F08170B505460C46204601F0ADFE0646D9
:10466000324621462846FFF7D1FF70BDF0B503461C
:104670000C4603EB4307944E483E06EBC701CE6859
:10468000721C8E68964200D100220E69964206D0B6
:10469000CF684E68F5192C70CA60012000E0002038
:1046A000F0BD2DE9F04707468846DFF81CA2AAF1C5
:1046B000600A00BF9AF8000008B9FFF7C7FC00BF06
:1046C000EFF311810846202181F3118800BF00BF5C
:1046D00007EB47027C49483901EBC204E1684D1CF5
:1046E000A168A94200D100252169A94208D0E26849
:1046F000616801EB020989F80080E560012600E0AD
:104700000026C1B281F3118800BF00BF3046BDE86A
:10471000F0872DE9F04707468846DFF8ACA1AAF1FB
:10472000600A00BF9AF8000008B9FFF78FFC00BFCD
:10473000EFF311810846202181F3118800BF00BFEB
:1047400007EB47026049483901EBC204E1684D1CA0
:10475000A168A94200D100256169022903D100BFE7
:104760002169A942FCD02169A94208D0E2686168A8
:1047700001EB020989F80080E560012600E00026CF
:10478000C1B281F3118800BF00BF3046BDE8F08799
:1047900038B5012269460020FFF7C6FD0446012C0A
:1047A00002D19DF8004001E04FF0FF34204638BDB3
:1047B00010B500BFFFF7ECFF0028FBDB10BD2DE9B3
:1047C000F041414F603F00BF387808B9FFF73EFC29
:1047D00000BF3D4C2669E068B04201D0012500E0F1
:1047E00000252846BDE8F08110B5014601EB4104E3
:1047F000354800EBC402D3681069181A10BD10B513
:10480000014601EB41043048483800EBC40213690B
:10481000D068C01A10BD2DE9F04706460F469046F5
:104820009946DFF8A4A0AAF1600A00BF9AF8000038
:1048300008B9FFF70BFC00BFEFF3118108462021F8
:1048400081F3118800BF00BF1F4D603D002400BFF1
:1048500004EB440205F1600101EBC201496801B9B2
:1048600003E0641C6969A142F2DC00BF6969A142EE
:104870002CDD04EB440205F1600141F8326004EBE9
:10488000440201EBC2014F6004EB440205F16001F8
:1048900001EBC201C1F80880002204EB440305F1DA
:1048A000600101EBC3010A6104EB440305F16001FF
:1048B00001EBC301CA6004EB440205F1600101EBA6
:1048C000C201C1F8149003E0F8CC01204FF0FF348E
:1048D000C1B281F3118800BF00BF2046BDE8F08758
:1048E0002DE9F04706460F4690469946DFF810A49A
:1048F00000BF9AF8000008B9FFF7A8FB00BFEFF36C
:1049000011810846202181F3118800BF00BFFC4DB2
:10491000002400BF04EB440205F1180101EBC201C1
:10492000496801B903E0641C2969A142F2DC00BFB7
:104930002969A1422ADD04EB440205F1180141F87E
:10494000326004EB440201EBC2014F6004EB44020D
:1049500005F1180101EBC201C1F80880002204EB47
:10496000440305F1180101EBC3010A6104EB4403A0
:1049700005F1180101EBC301CA6004EB440205F123
:10498000180101EBC201C1F8149001E04FF0FF34AF
:10499000C1B281F3118800BF00BF2046BDE8F08797
:1049A0002DE9F05F05460F4690469946DFF850B373
:1049B00000BF9BF8000008B9FFF748FB00BFDFF815
:1049C00040A3032D1FD2EFF311810846202181F36C
:1049D000118800BF00BF05EB45020AF1180101EB89
:1049E000C2043DB12760C4F80480C4F808900021D7
:1049F0002161E1600A996161C1B281F3118800BF50
:104A000000BF002601E04FF0FF363046BDE8F09FC2
:104A10002DE9F05F05460F4690469946DFF8E0B273
:104A200000BF9BF8000008B9FFF710FB00BFDFF8DC
:104A3000D0A2032D1FD2EFF311810846202181F36C
:104A4000118800BF00BF05EB45020AF1600101EBD0
:104A5000C2043DB12760C4F80480C4F80890002166
:104A60002161E1600A996161C1B281F3118800BFDF
:104A700000BF002601E04FF0FF363046BDE8F09F52
:104A80002DE9F04704460E46DFF8749200BF99F80E
:104A9000000008B9FFF7DAFA00BF994F032C16D2CD
:104AA000EFF311810846202181F3118800BF00BF78
:104AB00004EB440207F1180101EBC208C8F80060DA
:104AC000C1B281F3118800BF00BF002501E04FF0A3
:104AD000FF352846BDE8F0872DE9F04704460E462D
:104AE000DFF81C9200BF99F8000008B9FFF7AEFA92
:104AF00000BF834F032C16D2EFF31181084620210B
:104B000081F3118800BF00BF04EB440207F160018C
:104B100001EBC208C8F80060C1B281F3118800BF80
:104B200000BF002501E04FF0FF352846BDE8F087C3
:104B30002DE9F04704460E46DFF8C49100BF99F80E
:104B4000000008B9FFF782FA00BF6D4F032C16D2A0
:104B5000EFF311810846202181F3118800BF00BFC7
:104B600004EB440207F1180101EBC208C8F8146015
:104B7000C1B281F3118800BF00BF002501E04FF0F2
:104B8000FF352846BDE8F0872DE9F04704460E467C
:104B9000DFF86C9100BF99F8000008B9FFF756FAEA
:104BA00000BF574F032C16D2EFF311810846202186
:104BB00081F3118800BF00BF04EB440207F16001DC
:104BC00001EBC208C8F81460C1B281F3118800BFBC
:104BD00000BF002501E04FF0FF352846BDE8F08713
:104BE00010B5FFF733FA10BD2DE9F8430446DFF89E
:104BF000108100BF98F8000008B9FFF727FA00BF3E
:104C00000027FF208DF80000102C31D23D48005DB8
:104C10008DF801003A4D1835EFF3118080462020C1
:104C200080F3118800BF00BF287D00F00300022838
:104C300007D135480470022269462846FFF72FFA4B
:104C40000FE02846FFF7A2FA0646022E07D32E48A9
:104C50000470022269462846FFF75CFA01E04FF033
:104C6000FF3708F0FF0080F3118800BF00BF01E0AC
:104C70004FF0FF373846BDE8F8832DE9F047074687
:104C80008946DFF87CA000BF9AF8000008B9FFF75A
:104C9000DDF900BF102F70DADFF8648008F1180822
:104CA000484601F089FB0646EFF31180824620203A
:104CB00080F3118800BF00BF4046FFF767FA054642
:104CC00098F8140000F0030020B101281ED002283B
:104CD00047D136E0301D854201D200240EE039462E
:104CE0004046FFF743FA324649464046FFF7D7F9B8
:104CF0000446054801784046FFF738FA34E00000E2
:104D000098CC01204500002055000020042D02D23F
:104D10004FF0FF3414E039464046FFF727FA281FCA
:104D2000B04201D9304600E0281F024649464046BD
:104D3000FFF7B5F90446294801784046FFF716FA0F
:104D400012E039464046FFF711FA324649464046DE
:104D5000FFF7A5F90446214801784046FFF706FA17
:104D600002E04FF0FF3400BF00BF0AF0FF0080F305
:104D7000118800BF00BF02E0FFE74FF0FF3420467C
:104D8000BDE8F08770B5044604EB4401144800EB1D
:104D9000C1052846FFF7FAF970BD70B50146104C01
:104DA000183C01EB410604F1180505EBC6052A691C
:104DB00001EB410604F1180505EBC605EB689A42C4
:104DC00001D8981A08E001EB410604F1180505EB3B
:104DD000C605AD689E1AA81B70BD000055000020D6
:104DE000B0CC012070B504460E46A568681C616809
:104DF000814206D320684655681CA060E068401CCC
:104E0000E060D4E9011088420DD1A26821682069D0
:104E1000FFF7FCFBA168884203D04FF0FF30E06051
:104E200001E00020A06070BD2DE9FC5F804689464E
:104E300015461E460C9CCDF804900127BB4605E0A4
:104E40000198B0FBF5F001900BF1010B0198A8421D
:104E5000F6D25E4500D9B3460D9800F00100D0B9F6
:104E6000CCB10D9800F00200022803D116B9302011
:104E7000009001E02020009009E0641E4046009967
:104E8000FFF7B0FFD8F80C00002800DA02E00CB100
:104E9000A345F2D300BFD8F80C00002835DB09E0A9
:104EA000012E01D9761E04E0B9FBF7FAAA4500D21B
:104EB00001E06F43F4E700BF00BFB9FBF7FA0AFB5C
:104EC0001799F74810F80A104046FFF78BFFD8F8FB
:104ED0000C00002800DA03E0B7FBF5F7002FECD157
:104EE00000BF0D9800F0010078B174B109E0641EB4
:104EF00020214046FFF776FFD8F80C00002800DAA2
:104F000002E00CB1A345F2D300BFBDE8FC9F2DE940
:104F1000FC5F06460F4692469846DDE90C45002F99
:104F200001DA784200E0384683464FF0010903E099
:104F30009BFBFAFB09F10109D345F9DAC84500D911
:104F4000C14634B1002F03DB05F00400042800D172
:104F5000641E05F0020010B1B8F1000F11D005F089
:104F6000010070B96CB108E0641E20213046FFF7E3
:104F700039FFF068002800DA02E00CB1A145F3D354
:104F800000BFF068002836DB002F05DA7F422D21B4
:104F90003046FFF727FF07E005F00400042803D19F
:104FA0002B213046FFF71EFFF068002823DB05F0B9
:104FB0000200022814D105F0010088B9B8F1000FF1
:104FC0000ED16CB108E0641E30213046FFF70AFFB5
:104FD000F068002800DA02E00CB1A145F3D300BF6D
:104FE000F068002807DB4346524639463046CDE993
:104FF0000045FFF719FFBDE8FC9F2DE9F04F2DEDAF
:10500000028B99B082460D46144603A814904020A6
:10501000159000201690CDF860A0179000BF2E7854
:105020006D1C06B926E1252E73D100274FF001092A
:1050300000BF2E78232E12D02B2E0CD02D2E02D076
:10504000302E10D103E047F001076D1C0EE047F051
:1050500002076D1C0AE047F004076D1C06E047F0EC
:1050600008076D1C02E04FF0000900BF00BFB9F156
:10507000000FDED14FF0000800BF2E78302E01DB8C
:10508000392E00DD07E06D1CA6F1300008EB880129
:1050900000EB4108F1E700BF002013902E782E2E80
:1050A00012D16D1C00BF2E78302E01DB392E00DDB1
:1050B00009E06D1CA6F13000139901EB810100EBB2
:1050C00041001390EFE700BF2E7800BF6C2E01D097
:1050D000682E02D16D1C2E7800E000E0F6E700BFDC
:1050E000662E7BD00CDC582E3DD004DC252E70D0F3
:1050F000462E6DD173E0632E0CD0642EF9D115E0ED
:10510000702E53D0732E3CD0752E1DD0782EF0D13A
:1051100028E0A7E02168081D2060D1F8009009F080
:10512000FF0B594614A8FFF75DFE98E02168081DA3
:105130002060D1F80090CDE900870A22494614A8E2
:10514000139BFFF7E4FE8AE02168081D2060D1F878
:105150000090CDE900870A22494614A8139BFFF767
:1051600063FE7CE000BF2168081D2060D1F800903C
:10517000CDE900871022494614A8139BFFF754FE7F
:105180006DE02168081D2060D1F800B000BF9BF8D9
:1051900000600BF1010B06B906E0314614A8FFF7D9
:1051A00021FE17980028F2DA00BF58E02168081D98
:1051B0002060D1F80090002008210B461022CDE994
:1051C0000010494614A8FFF72FFE48E006E000E073
:1051D00044E0252114A8FFF705FE40E000BF206849
:1051E000C01D20F0070001460830206091ED001B33
:1051F000B0EE410AF0EE610A51EC100B01F056FAE4
:1052000008EE100ABDEEC80A10EE109ACDE900872C
:105210000A22494614A8139BFFF779FE2E2114A8F1
:10522000FFF7E0FD9FED1F0A28EE000ABDEEC00A61
:1052300010EE100A002801DB014600E041428946D9
:10524000642099FBF0F100FB119902230A224946E0
:1052500014A8CDE90087FFF75AFE00E000BF00BFA9
:105260006D1C03E0314614A8FFF7BCFD1798002819
:10527000BFF6D5AE00BF179800280ADD169820B1FA
:1052800003A95046169AFFF7C1F9DDE91610084444
:105290001790179819B0BDEC028BBDE8F08F000095
:1052A00039A200080000C8420FB438B5044606A869
:1052B00000906A4620460599FFF79FFE05460020AC
:1052C0000090284638BC5DF814FB000010B58CB087
:1052D00004461E230BAA03A9204600F0F3FD00900C
:1052E000009810B101200CB010BD9DF82C000444B2
:1052F00000200B900EE0C6489DF82C2050F822109C
:1053000003A800F047FD00B908E09DF82C00401C00
:10531000C0B20B909DF82C000728ECD300BF9DF87D
:105320002C00072870D2DFE800F004053E6497C621
:10533000F60000BFB7A10020FCF7F8FCB6A10020E2
:10534000FCF7F4FCC4A10020FCF7F0FCCAA100208B
:10535000FCF7ECFCCDA10020FCF7E8FCD0A100207C
:10536000FCF7E4FCD8A10020FCF7E0FCE1A1002060
:10537000FCF7DCFCEA490020FCF7D8FCE9A100209E
:10538000FCF7D4FCE6490020FCF7D0FCEF490020F4
:10539000FCF7CCFCEE490020FCF7C8FCEDA1002096
:1053A000FCF7C4FCE8E09BA10020FCF7BFFCF94936
:1053B0000020FCF7BBFC00200B900FE0F6480068D3
:1053C0009DF82C1000EBC100F4A142680020FCF70E
:1053D000ADFC9DF82C00401CC0B20B90EE48007D47
:1053E0009DF82C108842E9DC8AA10020FCF79EFC85
:1053F000C2E088A10020FCF799FCEA490020FCF7F4
:1054000095FC00200B901CE0B4E0E34909689DF88E
:105410002C2001EBC20101AB02AA486803A900F0ED
:1054200077FDDD4800689DF82C1050F8313003AA54
:10543000DDA10020FCF77AFC9DF82C00401CC0B2D6
:105440000B90D548007D9DF82C108842DDDC71A1C1
:105450000020FCF76BFC8FE06EA10020FCF766FCDF
:105460000BAA03A9204600F02FFE9DF82C00D8B906
:10547000694603A800F0C1FC0B909DF82C0028B9E8
:10548000CEA10020009AFCF751FC0FE09DF82C0003
:10549000042801D0022026E7CBA10020FCF746FC1F
:1054A0000120BD49C87501E002201CE759A1002078
:1054B000FCF73CFC60E057A10020FCF737FC0BAA8E
:1054C00003A9204600F000FE9DF82C00E0B96946D3
:1054D00003A800F092FC0B909DF82C0028B9BEA107
:1054E0000020009AFCF722FC10E09DF82C00042814
:1054F00001D00220F7E6BBA10020FCF717FC00203A
:10550000A549C87502E006E00220ECE641A10020B2
:10551000FCF70CFC30E03FA10020FCF707FC0BAAD5
:1055200003A9204600F0D0FD9DF82C00D8B96946AB
:1055300003A800F062FC0B909DF82C0088B99649F6
:10554000009881F8EC00084690F8EC0020B1A9A181
:105550000020FCF7EBFB08E0ADA10020FCF7E6FB28
:1055600003E00220BFE60220BDE62AA10020FCF7EE
:10557000DDFB01E00120B6E600BF0020B3E610B578
:105580000121AA48FEF782F94FF6FF71A748FDF7FF
:1055900013FD0021A548FDF70DFD00207E49C1F84F
:1055A000F00010BD10B50121A048FEF766F90128F2
:1055B00008D17948D0F8F0004FF6FF7108447649D9
:1055C000C1F8F0009948FDF7F9FC7349D1F8F010E3
:1055D00008447149C1F8F0000846D0F8F00010BD49
:1055E00070B501219148FEF754F901280FD1FFF75A
:1055F000E6F858B1002500248D484119FF2200200B
:10560000FEF792FE05462E4600BF20E12CE133E175
:10561000580000200D0A00002D2D2D2D2D2D2D2D93
:105620002D2D2D2D2D2D2D2D2D2D2D2D2D2D2D2DAA
:1056300055534D4152542056332E312D2D2D2D2DA5
:105640002D2D2D2D2D2D2D2D2D2D2D2D2D2D2D2D8A
:105650002D2D2D200D0A000055534D415254206828
:10566000617320372073797374656D20636F6D6D7E
:10567000616E64733A0D0A003F3A202020202020FA
:105680004765742048656C700D0A000068656C7091
:105690003A2020204765742048656C700D0A000090
:1056A0006C6973743A2020204C697374206F6620F3
:1056B000617661696C61626C652066756E637469A0
:1056C0006F6E730D0A00000069643A2020202020CC
:1056D0004C697374206F6620617661696C61626CDD
:1056E000652066756E6374696F6E732049440D0A98
:1056F000000000006865783A202020205061726127
:105700006D657465722068657861646563696D6153
:105710006C20646973706C61792C200D0A000000A4
:105720007CA300086465633A2020202050617261E8
:105730006D6574657220646563696D616C20646970
:1057400073706C61792C200D0A0000004CA20008D7
:1057500028A300082D2D2D2D2D2D2D2D2D2D2D2D5A
:105760002D2D2D2D2D2D2D2D2D2D2D2D2D2D414C36
:1057700049454E54454B2D2D2D2D2D2D2D2D2D2DA7
:105780002D2D2D2D2D2D2D2D2D2D2D2D2D2D2D2056
:105790000D0A0000E0A200089400002025730D0A05
:1057A000000000009CA20008257320696420697332
:1057B0003A0D0A3058253038580D0A004845583AF5
:1057C000305825580D0A0000446973706C617920C7
:1057D000484558210D0A00004445433A256C750D93
:1057E0000A000000446973706C61792044454321CC
:1057F0000D0A000052756E2054696D652043616C7E
:1058000063756C6174696F6E204F4E0D0A00000065
:1058100052756E2054696D652043616C63756C61CF
:1058200074696F6E204F46460D0A00000008004064
:1058300096C30120FD48005D0D2803D0FB48005DA4
:105840000A2803D10020F9490855761E641C681CFB
:105850008442EFDB701C80B240F40040F4490880C1
:10586000F4490869804700BF0021F348FDF7A2FB17
:105870006421F148FDF7A0FB0121EF48FEF71AF87B
:1058800070BD7FB504460D4601210420FDF790F957
:10589000ADF800500020ADF802000194ADF808000A
:1058A0006946E548FDF73DFB01221146E248FDF758
:1058B000D9FF0121E048FDF7BDFB1E208DF80C004B
:1058C00003208DF80D008DF80E0001208DF80F00DB
:1058D00003A8FCF7BEFB7FBD10B5044604EBC40073
:1058E00000EB04100122C2EB800081B24FF47A7009
:1058F000FFF7C7FF0120CF49C87510BD30B595B07F
:10590000054613AB12AA09A9284600F001FB04467C
:1059100014B1204615B030BD0020149026E0C549D2
:1059200009689DF8502001EBC20113AB11AA486829
:1059300001A900F0EDFA04460CB12046EAE709A9F6
:1059400001A800F027FA60B99DF844009DF84810BE
:10595000884201DD0220DDE79DF85000B5498875D9
:105960000AE09DF85000401CC0B21490B148007D80
:105970009DF850108842D2DC00BFAE48007D9DF8F3
:105980005010884201D10420C4E714A9284600F031
:105990000CFC04460CB12046BCE79DF85000A5491C
:1059A00048750020B6E72DE9F0419AB0A148847D02
:1059B000007DA04202DC1AB0BDE8F0819D49096873
:1059C00001EBC40106AB07AA486808A900F0A0FAD9
:1059D00008AA9AA10020FCF7A9F900264AE09548F8
:1059E000008B0121B1400840F0B1222295A1002096
:1059F000FCF79CF9304600F0CBFB8E492431471868
:105A00003A4691A10020FCF791F922228DA10020B5
:105A1000FCF78CF9304600F0BBFB86492431084482
:105A200010A941F826001AE0304600F0B1FB814988
:105A30002431085810A941F826007E48C07D38B9A5
:105A400010A850F8262081A10020FCF76FF906E08D
:105A500010A850F826207EA10020FCF767F99DF8D9
:105A60001C00401EB04203D07BA10020FCF75EF971
:105A7000701CC6B29DF81C008642B0DB77A10020E6
:105A8000FCF754F9FFF77BFD6A48407D0B280DD2E7
:105A9000DFE800F0060D151E27323F4E5F728700CB
:105AA0006449096851F834008047054690E0614A2E
:105AB000126852F8341010988847054688E05D4B0C
:105AC0001B6853F83420DDE91001904705467FE05C
:105AD000584F3F6857F8343010A807C89847054614
